:040000006F206033DA
:1000040000000000000000002E1E0000321E000050
:100014000000000034230000000000000000000085
:10002400342300003423000000000000000000001E
:10003400342300000000000034230000000000000E
:100044003423000034230000342300003423000050
:100054003423000034230000342300003423000040
:100064003423000034230000342300003423000030
:100074003423000034230000342300003423000020
:100084003423000034230000342300003423000010
:100094003423000034230000342300003423000000
:1000A40034230000661E00003423000034230000C3
:1000B400481E0000342300003423000034230000D1
:1000C40034230000342300003423000034230000D0
:1000D4003423000034230000781E00003423000081
:1000E40034230000342300003423000034230000B0
:1000F40034230000401E0000342300003423000099
:10010400342300003423000034230000342300008F
:10011400342300003423000000000000000000002D
:1001240000000000000000000000000000000000CB
:0C013400000000000000000000000000BF
:10014000397101436EC619A0397141536AC866CA34
:1001500062CC5ECE19A0397101535AD056D252D416
:100160004ED64AD826DA22DC06DE3301614082828E
:1001700041114AC026C222C406C68282B24D410144
:10018000024D924C224CB24B4101024B924A224A00
:10019000B2494101024992442244B2404101828065
:1001A0003D432A876373C3029377F700BDEFADE544
:1001B000937606FF3D8ABA960CC34CC30CC74CC756
:1001C0004107E36BD7FE11E28280B306C3408A0683
:1001D0009702000096966780A6002307B700A30643
:1001E000B7002306B700A305B7002305B700A30493
:1001F000B7002304B700A303B7002303B700A3028B
:10020000B7002302B700A301B7002301B700A30082
:10021000B7002300B700828093F5F50F9396850011
:10022000D58D93960501D58D61B7939627009702DA
:10023000000096968682E78086FA9680C1171D8F09
:100240003E96E374C3F8A5B73367B500FD530D8B35
:1002500079E7B7877F7F9387F7F710419441B372AF
:10026000F6003363F600BE92B3E262006395720C4F
:100270006318D6065041D441B372F6003363F600DA
:10028000BE92B3E262006396720A631BD604104505
:100290009445B372F6003363F600BE92B3E2620097
:1002A000639F7208631ED6025045D445B372F600B0
:1002B0003363F600BE92B3E2620063987208631182
:1002C000D60210499449B372F6003363F600BE9229
:1002D000B3E26200639172085105D105E30FD6F6CF
:1002E0001317060193970601631CF70013570601C5
:1002F00093D706013305F7409375F50F91E9828096
:100300004183C1833305F7409375F50F91E18280F6
:100310001377F70F93F7F70F3305F740828010211B
:100320009421050585056313D60075FA3305D6407B
:10033000828011059105E314D6FE014582802105D6
:10034000A105E31ED6FC014582803105B105E31805
:10035000D6FC014582804105C105E312D6FC01456A
:100360008280EFF27FDE01118545054502C202C49D
:1003700002C602C802CA02CC02CEEF200040854568
:100380001305C003EF20603F854537054000EF208F
:10039000A040854513050020EF20203E3165EF2069
:1003A000C02E0D44C149A1474C0037150140B71478
:1003B00001407C824EC622C4EF20800093070008D3
:1003C0004C00138504807C824EC622C4856AEF10DF
:1003D000307F93872A004C00138504C07C824EC670
:1003E00022C4EF10F07D13098004617B4C0013855B
:1003F0000480231261014AC622C4EF10707C930767
:1004000080034C00138504C07C824AC622C4096A5A
:10041000EF10107B93070AC04C00371501407C8217
:100420004AC622C4EF10D079914B4C00138504408A
:10043000231271014AC622C4EF1090784C00138534
:10044000048060824AC622C4EF1090774C00138566
:1004500004C0231271014AC622C4EF107076F977E6
:100460004C00371501407C824AC622C4EF105075FB
:1004700093070AE04C00138504807C824AC622C49C
:10048000EF1010744C0013850480231231014AC60A
:1004900022C4EF10F072C5474C00371501407C8232
:1004A0004AC622C4EF10D0714C00138504C0231239
:1004B00061014AC622C4EF10B070930700024C00DD
:1004C000138504807C824EC622C4EF10706F89476A
:1004D0004C00371501407C824EC622C41169EF10D2
:1004E000306E930709024C00138504C07C824EC60F
:1004F00022C4EF10F06CF1474C00138504C0938ABE
:100500000AC0231251013EC622C4EF10706BE1678E
:100510009387076A3EC8B707FFBF3ECA231E210163
:10052000B70700043769004089070C0813050980E4
:100530003ECCEF101076130509808545EF20E004CE
:100540001385048093050008EF103074A14537151A
:100550000140EF1090738565138504C08905EF1085
:10056000D072930700304C00138504C07C824EC6C5
:1005700022C4EF10F064138504C093050030EF101F
:1005800010719307000411494C00138504807C828C
:100590004AC622C4EF10D0624C0037150140231226
:1005A00021014AC622C4EF10B0614C00050A138530
:1005B00004C0231241014AC622C4EF1070600561D5
:1005C000C1B619C9EFF2DFBAAA8537F500001305E5
:1005D0000545EFA020117DBE8280EFF27FB9397111
:1005E0001306C00381454800653E9307803E3ED414
:1005F0009307007D3ED689473ED0B70700209387FA
:1006000007353EC69384D1809307005C4C00138568
:10061000D1803EC8EF30A04B8C202A8437F50000F3
:100620001305053FEFA0000C2285613F21619DB6B7
:10063000EFF21FB42A8403C5D180011136CE13070F
:10064000F00F6309E5021DC415C68DC6AE873E874F
:10065000B285A28670083EC6EF30007A7248B24773
:100660003830342010300C2037F500001305C53C1D
:10067000EFA04007056139BEEFF29FAF411193072C
:10068000A0107C86C8878D47B28668002E869305A9
:10069000803E5C87713F4101F5BCEFF27FAD4111B7
:1006A0009307A0107C86C8879147B28668002E8683
:1006B0009305803E5C87AD3F4101E9BCEFF25FAB43
:1006C00093F7450041112A84AE848DCB8145EF30EC
:1006D000407083C7C1802AC67000639187067D156C
:1006E0009307E07F63ECA704B72500209385059965
:1006F0002285EF30805F38862392E18893F784006B
:1007000091CF83C7C180639B870037F50000130535
:100710000542EFA0200F05472383E186C18889CCDD
:1007200083C7C180639A870037F5000013058543AE
:10073000EFA0400D238301864101A9BC814522859C
:10074000EF30A05A65BFEFF2BFA2EF30100A9377E7
:1007500045002A8499CBEF30300D118919C537F542
:1007600000001305C540EFA0E009418819CC014500
:10077000EF30F008AA8519C1014589370545EF30EA
:100780001008AA8519C10545153F29B411E57D5505
:1007900082807D554101FDBAEFF29F9D41112E846B
:1007A000B7F5000013077100740030009385C56928
:1007B00002C402C6A3030100EFA040108547E3DA9C
:1007C000A7FCA2475D47E366F7FC32479306B003F8
:1007D000E3E1E6FC9306C003B387D7020145BA976D
:1007E0001EA04DBFEFF2DF98376700408357478167
:1007F00093F7074099CB130707805E2BC207C1838D
:1008000093F7F7BFC207C1835EAB376400408545ED
:1008100013050480EF10905A2945EF2050118545AB
:1008200013050480EF10B05E2945EF20501081457C
:1008300013050480EF10B05D2945EF20500F13051C
:1008400004808545EF107054854513050480EF1032
:1008500090586FF03F94EFF2BF91B71401404111EF
:1008600093050040138504C0EF10904185652A84EC
:100870003339A00093850580138504C0EF105040E4
:100880003336A00019C06314050E37F50000CA8581
:1008900013058561EF9010653765004081451305AC
:1008A000058002C202C402C6EF10304E85679387EE
:1008B00007C0371401407C82D1473EC64C008D47AB
:1008C000130504C03EC4EF10B02F8565938505C0A5
:1008D000130504C0EF10703B1545EF205005A544EB
:1008E000130904C0930500404A85EF10503A15459E
:1008F000EF20F003930500404A85EF1010391545AD
:10090000FD14EF20D002F9FC93050040130504C04C
:10091000EF10B0371545EF20900185649385048072
:10092000130504C0EF10B0361545EF205000938535
:100930000480130504C0EF1050351545EF20207FCB
:10094000F1474C00130504C03EC6EF107027154553
:10095000EF20E07D37640040854513050480EF10EB
:10096000D042854513050480EF10F046A53D4101B6
:100970006FF05F82EFF2CFFF3707800041112E84C6
:10098000DD464D071C21DD1793F7F70F63E6F600F0
:10099000B357F700858B9DEBB7F500009306B100C8
:1009A00070009385456A02C6A3050100EF9010719F
:1009B000FD576359A00032479306E00F63E4E60059
:1009C00018A081473E8541016FF0CFFC05055DBF52
:1009D000EFF26FF837140300B76400402A8913045C
:1009E00014D49384048085497D140DE0B7670040DA
:1009F00003D6478183D6878137F50000CA85130562
:100A00000565EF90304E7D556FF02FF8CA8526852D
:100A1000EF101041E31A35FD0145FDB70DC5EFF2AA
:100A20002FF52A8411E62300050001456FF08FF6AB
:100A3000AE84B2851386F4FFEF90907CB3079400E8
:100A4000A38F07FEDDB77D558280EFF2EFEF4111F6
:100A50002A841135E1679387176AB766004003D788
:100A60008681098B19C3FD17FDFB3769004013050B
:100A700009808545EF10F032B70403001385140098
:100A8000813F631305141305098001469305800611
:100A9000EF10D036B709070013852908153F6315F5
:100AA0000512130509808145EF109034138549081C
:100AB0000537631B0510130509808545EF10702E5F
:100AC000138514003137631105101305098005469D
:100AD00093058006EF10903213852400D53D6315F1
:100AE000050E130509808545376B0040EF10B02EC9
:100AF000130A8100014993890404930A0B809D4BDA
:100B0000194C4E85F135AA8461E15685EF10902E7F
:100B100005092300AA001379F90F631B790985459C
:100B200013050B80EF10302B1C84A94613D7470008
:100B30001D8B3307D702BD8B3E979C8478A013D7BB
:100B400047001D8B3307D702BD8B3E971C8558B0DD
:100B500013D747000D8B3307D702BD8B3E971C86FA
:100B600058A013D747000D8B3307D702BD8B3E9794
:100B70009C8638B013D74700058B3307D702BD8B4F
:100B80003E9738A0188793574700B387D7023D8B0D
:100B9000BA9793F7F70F9387077D1EA018409387A6
:100BA000818698C35840D8C3268541016FF04FDD38
:100BB000631A890181455685EF10F02185455685D8
:100BC000EF10D01F050A35BF3139FD54F1BF93072F
:100BD000007D8146930800191303400663C9A702EC
:100BE00093084006130300193D6EB368150381474F
:100BF000AD4E094F130E0E69336365020D891388DC
:100C000017006348B8027D163305D600828013F7BB
:100C1000370019E733E867021307E0166318080086
:100C200033E71703133717001307D716BA9685074C
:100C300075B77D4763EDFE006319E80101E575476F
:100C400063970800754763040300F2979823BA96E8
:100C5000C28775B7EFF2CFD12A8430312C210A2117
:100C6000BD375C200567130707E1B387E7025567C7
:100C7000130707183305E5021307C003AA97483086
:100C80003305E502AA9768203E956FF0AFD0EFF2EA
:100C90002FCE797111E5FD54268545616FF08FCF18
:100CA000CD47E3FAB7FE2A8428102ECE793BAA84DA
:100CB0007DF18347E1028348D1020348C1023EC06F
:100CC0000347A1028347B10283568102F24537F6FA
:100CD0000000130606462285EF90903775BF19E194
:100CE0007D558280F5DDEFF20FC72E84AA841306AE
:100CF000800381452285EFF0AFCA2685EF104009B9
:100D0000AA841DCDB7F5000093854556EF10200944
:100D10002A89EF10A00A05C9032609010DC6D1458D
:100D20002285ED39B7F500009385055E2685EF1025
:100D300000072A89EF10800911E92685EF00303677
:100D40007D556FF08FC423000400E9BFB7F50000A4
:100D5000938585544A85EF108004B7F500002A8AF0
:100D6000938545574A85EF108003B7F50000AA899F
:100D70009385455E4A85EF1080022A895285EF10DF
:100D8000E00345DD83270A01CDDB4E85EF1000032C
:100D90004DD583A70901D5D34A85EF10200251DD37
:100DA00083270901D9DB03260A0195451305440170
:100DB000B53103A609019145130594018531032638
:100DC00009018D451305D4019139B7F500009385CC
:100DD00085582685EF00B07C2A89EF00307E31DD12
:100DE00003290901E30B09F4B7F500009385C55EFB
:100DF0004A85EFF06FC5854711C9B7F500009385A7
:100E0000455F4A85EFF04FC451E589471CD0B7F5DF
:100E100000009385C55F2685EF0070782A89EF0072
:100E2000F07AE30C05F01C5005476398E706B7F528
:100E30000000938585594A85EF007076B7F500006C
:100E4000AA89938545604A85EF0070752A894E8589
:100E5000EF00D076E30305EE83A70901E38F07ECEB
:100E60004A85EF00B075E30A05EC83270901E386A4
:100E700007EC03A6090199451305440245360326EC
:100E8000090199451305A402513E2685EF00302142
:100E9000014545BD232004029DBF0947E39FE7E8C4
:100EA000B7F50000938585604A85EF00506FB7F570
:100EB0000000AA89938505614A85EF00506E2A8952
:100EC0004E85EF00B06FE30A05E683A70901E386CC
:100ED00007E64A85EF00906DE30105E603A60901E8
:100EE0009945130504031D3E832749017EB871BF50
:100EF00011E57D5582807D556FF0CFA9FDD975DA5A
:100F0000EDDAEFF2EFA6830745011307450189E704
:100F100037F70000130747498307950195CF9307DB
:100F200095010308D501630E08021308D501368424
:100F3000B28437F60000AE861306464AA28526859F
:100F4000EF901011E34905FAE34885FAA294A38FC4
:100F500004FE1305F4FF4DB7B7F700009387C749A8
:100F6000C9B737F800001308084AD1B7EFF24FA00D
:100F700031712A84AE841306800381452800EFF086
:100F80002FA21306140095456808EFF03FA9130639
:100F90006400914513051102EFF05FA81306A40049
:100FA0008D4513055102EFF07FA7930600089000CE
:100FB000A6852800353F635FA0002A8668241307B2
:100FC000D00F9307F5FF93F7F70F6368F7008C00D6
:100FD000EFF0AFEC29616FF0EF9B48349307F5FF1A
:100FE00093F7F70FE368F7FE8C00EFF0EFE8DDB75B
:100FF000EFF20F981306002C81451385814EEFF018
:101000002F9A23A801869387818623A0070023A215
:1010100007006FF02F98EFF2AF921D712C10C131C5
:1010200011C57D5A528525616FF04F958307810266
:101030002A8A638E0718B7F500005C08930801023E
:1010400013088101180874003000938505482810A2
:10105000EF90D0069947631CF516224B9307300694
:1010600013070B8363E5E716B24AAD471387FAFF10
:1010700063EFE714C249F9471387F9FF63E9E714FF
:101080005249DD4763E52715E2449307B00363E067
:101090009714025463ED8712A9471374F40F335762
:1010A000F40293F4F40F1379F90F93F9F90F93FA0B
:1010B000FA0FB376F4021207558F2300E10233D7FB
:1010C000F402B3F6F4021207558FA300E10233577E
:1010D000F902B376F9021207558F2301E1020547A1
:1010E000A301E10233D7F902B3F6F9021207558FD3
:1010F0002302E10233D7FA02B3F6FA021207558F40
:10110000A302E10213070B031377F70FB356F7029D
:10111000B377F7029206D58F2303F102EFF0AFF316
:10112000E1679387176AB766004003D78681098B0A
:1011300019C3FD17FDFBB76B004013850B80854578
:10114000EF102046370503000505EFF07F88631197
:10115000050E13850B80014693058006EF10004AAB
:10116000370C070013052C08EFF09F8671E11385FB
:101170000B808145EF10C04713054C08EFF05F85E9
:1011800045E9B76C0040814B938D0C80130C4C08E3
:101190001D4D1C10DE978C236E85EF106045628517
:1011A000EFF01F8351E5850BE395ABFF8545138574
:1011B0000C80EF10A04093878186239067012381E4
:1011C0005701A381370123822701C4B3E0A3938988
:1011D000814E1384814E01499384814EC14A1C2063
:1011E00085CB15466C1813051400EF90E07E0DE1D9
:1011F00011469305110413056400EF90E07D09E9A1
:101200000D46930551041305A400EF90E07C45CDF5
:1012100005091304C402E31459FD0149C14703C77A
:10122000090055C305099389C902E31AF9FED5BB24
:10123000EFF04FDB69BF8947E395F9DE2808EFF04F
:10124000DF80E31105DE4C08A808231A0100EFF047
:10125000EFD3E31905DC2808EFF0DF9FE24713071F
:10126000C0032A843ED0F24708103ED2BC8223033A
:101270000102B3D6E702B3F7E7022302D102A302C9
:10128000F102EFF03F9D3304854063560400D567BB
:10129000938707183E950357E1059307C00333076B
:1012A000F7029307C002B307F9022A97A697D8D38B
:1012B000094798CB7D5788D32394070223AA0700B8
:1012C00098CFD8CFE9A09309C002B3093903130618
:1012D000C0028145338434012285EFE07FEC8547ED
:1012E000138519001CA0701895452695EFF00FF393
:1012F000138569001306110491452695EFF00FF24E
:101300001385A900130651048D452695EFF00FF1C2
:101310004C086818230A0100230C01002300010275
:10132000EFF04FE52C0813051104EFF0AFE40C10BB
:1013300013055104EFF00FE483474101A6495CB463
:10134000834781017CA48547E397F9EE2C08E800E8
:10135000231C010023100102EFF04FC3E31405CC5E
:101360000C1013052105EFF06FC2E31D05CABC8404
:1013700023283401232004025EA88357010223227C
:101380000402231404027EA8FD571CCC5CCC014A45
:1013900051B99387018798439306703E3307E54020
:1013A00063FFE60CEFE25FDA411188C32800EFF03B
:1013B000CFE941E12800EFF0FF89AA8990850C85EB
:1013C00028841384814EEFF09F8004869307C00326
:1013D0002A89B384F4029C86930B042C054A094C99
:1013E000B7FA0000854C37FB0000BE941C2095CF57
:1013F0001C48639347055E28639C97001C4C6389D7
:10140000270193058B592285EFF05FB6232C240129
:101410007E28639C97005C4C6389270193854A6012
:101420002285EFF0BFB4232E24011304C402E31F6E
:1014300074FB41016FE0DFD4E39987FF83478402A7
:1014400089EF1C50B387F940E3C107FE93058B5920
:101450002285EFF0BFB12304440383479402F1F7E0
:101460005C50B387F940E3C207FC93854A6022854C
:10147000EFF0DFAFA3049403230004007DB7828064
:10148000EFE21FCFEFF02FBDB7170300938707D40C
:1014900037660040FD5603578681098B31C7FD171B
:1014A000E39BD7FEB7640040138504808545EF10A9
:1014B000400F370503000505EFF08FD11DE9014608
:1014C0009305800613850480EF104013370507004D
:1014D00013052508EFF0CFCF2A8401ED854513854C
:1014E0000480EF10A00D19A07D54CDFF22856FE080
:1014F0007FCAEFF02FAF7D54D5BF81468147A54805
:1015000095450D4311483307D5001823130607FDF1
:101510001376F60F63EDC800938707FDBA976383D0
:10152000660092078506E39006FF3E8582801306DB
:10153000F7FB1376F60F63E5C500938797FCF9BFB9
:101540001306F7F91376F60F63E5C500938797FA4C
:10155000F1B78147D9BFEFE2BFBE94419C452A8BCA
:101560001306200213871700B69788234111AE890E
:10157000B38DE600631FC52083A845006E89014531
:1015800013032002130EC0053308D94063731821DA
:101590000348090063126804B307F9403385A74084
:1015A00083A70901050582972A8D6304051EB706E6
:1015B00010004974CD74938706C0AA8C130CC00523
:1015C000930A6006130A200713040440930BF03FAC
:1015D000938404803EC41DA06318C8010509330824
:1015E000D9406378181B0505050979BF83C60D002E
:1015F000638A86032380DC00850D850CE3E82DFFDC
:1016000023800C00C1472326FB0083A70900232861
:10161000AB0105453306F940050623A4C900410185
:101620006FE0DFB53305B9416352A00283C61D00E8
:10163000638E560F63E2DA041305F002638BA60291
:101640006362D502130520026385A60283A74901C0
:101650006A85829783A7090001453387FD4023A44B
:10166000E90075BF6387860113052006E390A6FE97
:10167000A1462380DC0075A86381460D6368DA000B
:101680001305E006E394A6FCA946E5B793074007D7
:101690006387F60A93075007E39AF6FA9547E3D76C
:1016A000A7FA13852D00913DAA862295E3F0ABFAA7
:1016B0003385960063E7AB0813856D0036C63305A6
:1016C000A9409547E3D4A7F803C56D00E31085F959
:1016D00003C57D0093075007E31AF5F613858D00C7
:1016E000293D33088500E3E30BF7B246A2471375A3
:1016F000F53FAA06FD8EC98E4165AA963145930F26
:10170000000F91481388F8FF1378F80F669813FFBD
:10171000F60F63970C0785479376FF076384F800FD
:10172000B3E6EF012380DC00C69C31A0B1472380E3
:10173000FC00850C0945AA9DD1B5B547CDBFA5478D
:10174000FDB79307F00763FFD7009307F07F63FFB0
:10175000D700416563E1A60237051100E3F8A6EE64
:10176000194571BF1945814F854869BF1945930FC8
:10177000000C894841BF1945930F000E8D4859B799
:10178000137FFF03136F0FF82300E80199827D1880
:10179000BDBF0145E3900DEC59B51DC9144185CA83
:1017A0005C411845130600026365F7008280050757
:1017B00018C518456378F700B385E6008C21E378F7
:1017C000B6FE82806396E700FD171CC58280014546
:1017D0008280EFE25F9841CDD9C9AE8900453DEEE8
:1017E000854A51C40329040263070906630F3907B8
:1017F0004E8B034A0B00EF80304652951C318D8B87
:1018000063945701130A0A0283440900EF80D0440D
:1018100026951831A6870D8B631457019387040210
:1018200083440B006309FA04EF80104326951C31B2
:101830008D8B639457019384040203490900EF8060
:10184000B0414A951831CA870D8B6314570193072D
:101850000902638CF400004069B7004009C80C50CD
:1018600089C54E85EFE05F9E6DF91C5091E3014400
:1018700022856FE09F91F5D8050B05099DBFEFE22A
:101880003F8FAA871305800282972A8411C5130609
:1018900080028145EFE0DF9022856FE0BF8FEFE2AD
:1018A0003F8DB70400202A849384040019E06FE080
:1018B0007F8E5C440329040093F7071089E70844EE
:1018C00015E1084815E55C4493F7072099E70850AF
:1018D00009C5DC40829723200402DC4022854A842B
:1018E0008297E9B76D3F5C4493F70710F9DBE1BFDE
:1018F000DC40829723280400F9B781E581473E85C3
:101900008280EFE25F8583A905004111638C091293
:1019100003A9850003AA45002E84930A4900AA84DE
:1019200063625A03B7F5000011469385056C338551
:101930002901EF90600A19E59147DCC42324540182
:1019400085471DA0130B590063646A03B7F50000B7
:1019500015469385856C33852901EF90E00709E9E9
:101960008547DCC4232464013E8541016FE0FF818B
:1019700063635A03B7F5000011469385056D3385FF
:101980002901EF90600501E98947DCC48547DCC87F
:1019900023245401D1BF6377490BB38729019823CE
:1019A000930620026318D700A2852685EFF0BFBA00
:1019B000AA875DBF9306D0026309D700930607FD8F
:1019C00093F6F60F25466368D60ED29902C63E8777
:1019D000014A130690039305500413085006930818
:1019E00000039306B002054313051A006381E90260
:1019F0001C23636BF60463FD1705638BD70463E850
:101A0000D700938737FD93F7F70F6373F3041C48F0
:101A100082972A89814729D91C440C4052864A9AC8
:101A2000BE95EF8050296C0023000A004A85EF9094
:101A3000104BB2492A8AAE8A032B4401631D390137
:101A40004A85029B81470DB76384B700E39107FD88
:101A500005072A8A51BFB7F7000003A6076B83A6C4
:101A6000476B88CCCCCCEF70103563410502B707CB
:101A7000008093C7F7FFDCC81844A147DCC4B387D4
:101A80002941BA971CC44A85029B5DBDB7F7000087
:101A900003A6876B83A6C76B5285D685EF70903CF3
:101AA0006345A000B7070080F9B75285D685EF805F
:101AB000F005C8C8D1B79306B005631ED70A5444D1
:101AC0001306703EE360D6F8850654C49C23E39B5E
:101AD000E7F60509232424012285C1311C4458401E
:101AE00063F6E70E18403E9714231307D00563945E
:101AF000E602014981495C44FD175CC46384090026
:101B000023A2290193070002DCC41C4423A434014E
:101B100085071CC435B5FD171CC4014A8149930AC9
:101B2000C0020848A93B2A89630505146383090498
:101B30002320AA00232245011C44228585071CC4BA
:101B4000EFF0BFC5A2854A854D3B6306051222858D
:101B5000EFF0BFC418445C40637FF7101C404A8A12
:101B6000BA979C23E38F57FB1307D0056395E710C3
:101B700059B7AA89D1B79306B007E315D7EC5444F7
:101B80001306703EE360D6EC850654C49C23E39BA9
:101B9000E7EA0509232424012285EFF01FC01C4435
:101BA000584063F5E70218403E9714231307D00707
:101BB0006391E602014981495C44FD175CC463847A
:101BC000090023A22901930700043DBFFD171CC48F
:101BD00095BDFD171CC4014A8149130BA003930A4C
:101BE000C0020848EFF0BFC92A8941C563810908CE
:101BF0002320AA00232245011C445840850763FC8A
:101C0000E7061CC42285EFF05FB9A2854A85EFF094
:101C10009F9435C12285EFF05FB8832709015840B2
:101C2000232809002320F9021C4463F6E704184026
:101C30003E9718236311670585071CC42285EFF0C2
:101C4000DFB5A2854A8555391DC52285EFF0FFB461
:101C500018445C406371F7021C404A8ABA979C237F
:101C6000E38157F91307D0076397E700B1B7AA8953
:101C700061B7E38909DC4E85EFF07FC2E1B3EFE2A3
:101C80008FCD01112A892E84B28981457146480081
:101C9000368AEFE0EFD09387418723A0070023A285
:101CA00007006309090A9384418751C4B7050020DE
:101CB00022C43146138405004808938505004AC2B2
:101CC000EF80607F0840EFF09FBB2A842DC512454E
:101CD000814705C5324715E3A24611475C00637E84
:101CE000D700B7F500000D469385C56AEF80D04E4A
:101CF0005C0001E58D473EC65C003E85EFF0FFA924
:101D0000AA852285EFF07FBF05C563180A00639599
:101D10000904228505616FE04FC74800EFF0FFA777
:101D20003247A2476376F7009247BA979C23E5D3E0
:101D30002285EFF0DFB63247A2476365F70291C311
:101D4000FD17638609003307F90023A0E90023A0EB
:101D50002401DCC0014475BF92473247BA9723A0E3
:101D6000F90045BFBA87F1BF15C1EFE26FC041115D
:101D70002A84AE8432C6EF801045B2469305150022
:101D800026862285ED3D41016FE0CFC0014582806E
:101D9000EFE20FBE01468145C13F6FE0AFBFEFE20A
:101DA0002FBD0146EFF0FFA26FE0CFBE11C5482561
:101DB00061151335150082800145828011C54825C3
:101DC00041151335150082800145828019C54825CB
:101DD000130505FC1335150082800145828081477B
:101DE00021C103D6018893872188962313872188F0
:101DF0008147C206C1826385C6021623B717002039
:101E000093870719B6979C239306F07F1CA11E2386
:101E10008507C207C18363F3F60081471EA3854788
:101E20003E858280239001882391018882807300FF
:101E3000203037F500001305056FEF80B01C01A0BE
:101E4000EF10600F730020302945EF00D0419387D9
:101E5000C1879843854537050040290798C3EF009F
:101E6000702073002030373501408545130505C0CB
:101E7000EF00501F73002030411122C6374400404C
:101E80009305505213050440EF00F02D21C91305AE
:101E90000440EF00302C938701889E239306F07F47
:101EA000138701888507C207C18363F3F600814762
:101EB00083D62188638CD7001223B716002093861F
:101EC00006191375F50FB29688A21EA33745004078
:101ED0009305505213050540EF00B02C32444101E8
:101EE000730020302397018823A40188A3860188EA
:101EF000238601888280EFE22FA579719D2C716481
:101F000013050420EF106029EFE0AFC5EF10C01FEC
:101F10001305401FEF1000259305703E1305700751
:101F2000A9267D2685451145EF00300585453705F5
:101F30000200EF007006B71401409147138504803A
:101F40007C860D49E1476C003ECA4AC89529A147E5
:101F5000138504807C866C009147130404203ECADC
:101F60004AC8B92922CC37440040B7070C001305F2
:101F700004402C083ED002CE23120102EF00500F85
:101F800005469305505213050440EF00D0189307FF
:101F900060137C8285475C83480085473EC4612D81
:101FA000854513050440EF00B015AD3DEFF04F84BB
:101FB00037F5000013054570EF80D004370400208A
:101FC0009307C41EB833B42390338345C41E37F53A
:101FD000000013054571EF80E070B704002093877F
:101FE000841EB833B423903383C5841E37F50000B4
:101FF0001305C572EF80006FEFF08FC851E937F518
:10200000000013054574EF80E07F13850186EF0023
:10201000902393860186138681809385841E130501
:10202000C41EEF10000637240020EFE08FD9EFE048
:10203000CFDA13040419EF00B04BEF10307719C159
:10204000EFE06FF083A4C187930AE07FB7FB000045
:102050002808EFF0DFD831E12685EFF08FB39387C2
:10206000018994431167130777A9B386D440E374B9
:10207000D7FCE145280884C3EFE07FC16314050E57
:1020800037F500002C081305C577EF80A06565B70C
:1020900037F5000013054575BDB7138D818883277B
:1020A0000D00830C81019DE39307B007E392FCFAD6
:1020B000153D85471387E1882320FD001E23938665
:1020C0001700A29716A32380970159B71386E188BA
:1020D000162263F4DA003935A5BF138716004207CC
:1020E000A2962380960141839386D1881AA29022DA
:1020F00015C69387C188982301C72380070089BF2D
:102100001307C0056395EC00054798A391B79307A3
:102110002002E39FFCF2238006001DBF130620026D
:102120006395CC0085479CA225B79306B0076396BC
:10213000DC0085072320FD0021BF9306D007E3992B
:10214000DCF0FD172320FD00E344F0F02297A28588
:1021500013858B7623000700EF80C0582285EFE0BF
:102160009FEB95BF37F5000013058578EF808069F8
:10217000D9B5B71702409843B706FFF0411113676E
:10218000170098C3D84337060200758FD8C3984309
:10219000B706F7FEFD16758F98C39843B706FCFF88
:1021A000FD16758F98C3D843B70601FFFD16758FCE
:1021B000D8C337079F0098C702C402C69843C166B8
:1021C000558F98C3B716024005679C42F18F3EC6F3
:1021D000A24785073EC4B24781E7A247E397E7FEDF
:1021E000B71702409C431397E700635E07068547D5
:1021F0003EC6324785476316F706B7170240D843F5
:10220000B706C000558FD8C3D843B706C1FFFD1627
:1022100013670708D8C3D843D8C3D8431367074008
:10222000D8C3D843758FD8C3D843B7063500558F68
:10223000D8C39843B7060001558F98C398439316A7
:102240006700E3DD06FED843B7160240719BD8C392
:10225000D84313672700D8C32147DC42B18BE39EE4
:10226000E7FE4101828002C669B7EFD27FF02A847F
:1022700005650111AE8413050580854502CA02CCAF
:10228000231E010002C602C8CD29E0823734014076
:102290004C08130504C0E484231D0100231B010026
:1022A000230E01003523930790027C868D475C87BF
:1022B000680085473EC841260546130504C085458C
:1022C000492B8545130504C08D2B05616FD09FEC0C
:1022D000EFD21FEA41118545054502C202C423160B
:1022E00001005D2983A7018137470F0013070724E9
:1022F000B3D7E7024C0037050040231501007C846A
:1023000089679387F7703EC2E12105468545370509
:102310000040812385453705004005238545370565
:1023200000408923B7E700E0056723A2E7104101D9
:102330006FD05FE601A097E1FF1F9381216B17E14A
:102340000020130121CC17E500001305659C97E5DB
:10235000FF1F938525CB1386018663FAC500832270
:10236000050023A0550011059105E3EAC5FE13857C
:10237000018697550020938565656377B500232016
:1023800005001105E36DB5FEFD42739002BC8D4260
:1023900073904280930280087390023097E2FFFFAF
:1023A000938282C693E2320073905230EFF07FDC6A
:1023B00097020000938262B473901234730020304D
:1023C0009C4513F7070113F8F70001C7D84133689C
:1023D000E8008E2113F7F50F39C318418146854E69
:1023E0003D4F930F800293028004214E3396DE000E
:1023F000B3F8C500631116039398260033131F0129
:102400001343F3FF3377E300B318180133E7E80011
:10241000639FF70550C98506E39AC6FD18C11307E7
:10242000F00F6375B70454412146854E3D4F930F1D
:10243000800293028004414EB398CE0033F7150119
:102440006392E8021317260001173313EF001343BA
:10245000F3FFB376D3003317E800D98E639DF701FD
:10246000232A15010506E319C6FD54C18280E394B1
:1024700057FA10C94DB7E39757FE23281501DDB76A
:1024800008456D8D3335A00082800CC982804CC90F
:102490008280EFD2FFCD797146212A8468082EC64A
:1024A000F52A925737470F001307072433D7E7025F
:1024B000C204C18093F404FCC204B7869303C180B4
:1024C0009386F66FB24542074183D98C63F4F600D8
:1024D0001307C00346A0162061661306066AC206EB
:1024E000C182F99AC206C18216A094416369D604DA
:1024F0008606B3D7D702114693960701C182B687E5
:1025000063F3C6009147C207C183050742074183B1
:102510001AB05EAC1E20DA21B62593E717001EA084
:102520001E20558FC207C18393F757BFD98F1EA0B6
:102530009A25DE25D98F1EA445616FD0BFC5EA213B
:1025400031667D166319C5020D46B386C602B3D740
:10255000D702C207C1839396470199E293E7170018
:10256000A166D58F9306C0123307D7029306803E2B
:102570003347D70259BF6546B386C602B3D7D702E1
:102580009166C207C183D58FF9B71E2189C593E72C
:1025900017001EA18280C207C183F99BC207C183B5
:1025A000CDBF1E2189C593E707101EA18280C207F7
:1025B000C18393F7F7EFC207C183C5BF1E2189C549
:1025C00093E707201EA18280C207C18393F7F7DF3C
:1025D000C207C183C5BF1E2189C593E707401EA15D
:1025E0008280C207C18393F7F7BFC207C183C5BF0B
:1025F0000EA982800A291375F50F828093F7E50FE3
:1026000019C293E71500C207C1831EA982801E214B
:1026100089C52167D98F1EA18280C607C583E5BF02
:102620005E290A2D42055D8D6D8D220521810D8D5E
:1026300013351500828003A7418985471421631053
:10264000F7021C31639CE7023C21960793E707F8E9
:1026500037E700E093F7F70F36972300F740054779
:1026600093D756003317D700544189CE9387070478
:102670008A07B7E600E0B69798C38280EDF33C2165
:102680009607F9B793870706E5B7B7160240DC420D
:1026900051777D17F98F5D8DC8C282803717024050
:1026A0005C439146B18B6385D706A1466387D70605
:1026B000B7177A00938707201CC1371602405C4287
:1026C000370700201307C7009183BD8BBA97942367
:1026D0001C41B3D7D7005CC15442A1829D8ABA96EF
:1026E0009422B3D6D70014C55442AD829D8A369742
:1026F0001823B3D7E7005CC5584239839376370077
:102700001387418136971823B3D7E7021CC982800B
:10271000B757E8019387078045B75C435843C166C4
:10272000C983BD8B758F8907C5466393D700C94799
:1027300001EF3747024003270780418B15CB37173E
:102740007A001307072029A8B7160240D842370697
:10275000C000718F6319C7003727F40013070740C3
:10276000B387E70291BFD8429316E700E3D906FC8E
:1027700037173D0013070790E5B799C53717024093
:102780001C4F5D8D08CF8280B7170240984F1345CC
:10279000F5FF798D88CF828099C5371702405C4F4D
:1027A0005D8D48CF8280B7170240D84F1345F5FFA3
:1027B000798DC8CF8280B7170240D843B70600F0A2
:1027C000FD16758FD8C3D8437205598DC8C3828052
:1027D0001E2137370140130707C0C207C1836304B6
:1027E000E502370700406300E50213070740630C6A
:1027F000E50037170040930607806306D5001307EE
:1028000007C06316E500BA2193F7F7F8D98FFA21CC
:1028100093F7F7CFC207C183D98F1EA1DE215EB522
:102820009E211EB5B7370140938707C06314F5009A
:102830009C251EB985475EA982801E2189C593E724
:1028400017001EA18280C207C183F99BC207C18302
:10285000CDBF5E2501C6DD8D4EA5828093C5F5FFF7
:10286000FD8DDDBF93C5F5FFC205C1810EA9828034
:10287000EFD21F901629F577FD17F58FF621DA258F
:102880007971D58F1EA95625FD779387379FF58FD0
:10289000D6212A842EC6D58F9625D58FB625D58FDD
:1028A0005EA55E29C207C18393F7F7CFD98F5EA9D2
:1028B0006808EFF0BFDEB747014093870780B24555
:1028C000631EF402A2576547B387E7029841930657
:1028D00040060A07B3D7E70233D7D702B3F7D702C8
:1028E0001207920793872703B3D7D702BD8BD98FDF
:1028F000C207C1831EA445616FD0DF899257E1B73B
:1029000091C55E250967D98F5EA582805A25F97722
:10291000FD17F98FD5BF13F7F50F85471583B395CD
:10292000B7006319F7009307C500984301CED98D0E
:102930008CC38280894693074501E318D7FE93072D
:102940000501E5B793C5F5FFF98DDDB793F5F51FE3
:102950004EA182804A211375F51F82800A216D8D58
:102960003335A000828013F7F50F85461583B397A2
:10297000B6006311D7025A25F98F1A210145420783
:10298000418381CB0545A181B315B5006D8F3335EA
:10299000E000828089466314D7001A29F1BF5A29C2
:1029A000E1BFA1818547B397B70093C7F7FFC2077F
:1029B000C1831EA182809387018A9843144363C612
:1029C0000602144337060080C205D18E14C3378730
:1029D00002402AA7C1810EA77433054593E68600FD
:1029E00074B39843584798C3828001458280EFD2E0
:1029F0002FF8854793050004631AF5003715014049
:102A0000130505C0EFF07FA86FD0CFF83715014050
:102A1000130505C0EFF0BFA7C5BFEFD26FF585471F
:102A200093050008631AF50037150140130505C02A
:102A3000EFF0BFA56FD00FF637150140130505C0A5
:102A4000EFF0FFA4C5BF37F7FF1F81471307D77EFD
:102A500099463306F7400C223306F50085070CA291
:102A6000E399D7FE82809387418A98433A9588C339
:102A70008280EFD2EFEF3784024095472302F402C1
:102A8000854716302302F4021A30FD8A420741833B
:102A90009387218BDDCE9423139686016186634A4A
:102AA00006041387818110239375C60091E9A38DD5
:102AB000018A2388018A130700F898A36FD08FED4D
:102AC00093F52600EDF593E626006D9A10A3A38CEE
:102AD000018A94A3230204021E3093E70720C20751
:102AE00093E707105CD01C23C20793E7E7115CD083
:102AF000F1B79386B18B9022930516008CA2954571
:102B0000E31EB6FA1377070255FBA38C018A2380D4
:102B10000600238C018A23800700230204021E3052
:102B200093E70720C20793E707105CD083C6818133
:102B30001387818113F6C60093F7B60F19E293E766
:102B400046001CA3C20793E7E711378702405CD316
:102B5000B5B71377070221FF982393060008631483
:102B6000D7021387018B142329466385C600850687
:102B700014A3A9B723000700A38C018A238C018A20
:102B80002380070025BF05EF9387818B9423294677
:102B90001387160098A313878181639EC600238044
:102BA0000700F9472302F4021E3093F7370F93C74B
:102BB00037001CA315BF142313F6C600B5BF894602
:102BC000E31ED7EE9384818198209376C7008DE22F
:102BD0001367470098A0230204021E30294593E79B
:102BE0000720C20793E707105CD091239C20EDBD1E
:102BF0001387918B14233D46E39BC6F62300070001
:102C0000B5BF03A7418A23AAE18A03C68189094780
:102C100093868189637AC702B78702407947238206
:102C2000E7029A334207418313562700058A9367C8
:102C3000470019C2937737FFC20793E7E711378739
:102C400002405CD32380060082809387118B9823F7
:102C50001377F70F21CB03A7418A83A6418B158FEA
:102C60009306301F63F5E6082380070037470240CC
:102C70008327078093E747002320F780B70700806A
:102C800093870710378702405CD3A38D018A238D79
:102C9000018A2388018AA38C018A238C018A2389D3
:102CA000018A8280EFD2CFCC83C7A18B95E31387B3
:102CB000418A9387418B14439043918E13061003EE
:102CC0006376D600184398C3EFF0BFDA6FD08FCC8D
:102CD00083C7818AE5DF83A7418A03A7418B998F48
:102CE00013073006E374F7FEEFF0BFF1C5B782803B
:102CF000EFD20FC8EF006072AD23EFF01FF56FD079
:102D00006FC9EFD2EFC641118545214502C202C409
:102D100002C6EFF09FA69307000C371401407C8297
:102D2000C1473EC64C008D47130504C03EC4EFF0BA
:102D30002FE9130504C093050004EFF00FF5930588
:102D40000008130504C0EFF04FF441016FD08FC4A9
:102D500023AEA188B7080080814713030060130EDB
:102D6000F6FF63E3C700828033886702139747004A
:102D7000B306E50023A016012E9823A406012A8895
:102D800063F5C70141073308E500850723A606015F
:102D900093F7F70FF9B783A7C1899A27B78702403E
:102DA000DAA7F83313674700F8B38280EFD24FBC3D
:102DB0000545EFF05FA06FD0EFBDEFD26FBB4111C3
:102DC0002AC6EFF0BFFEB7870240A3810700B833E1
:102DD0001367B70DB8B3B83313674700B8B37D575F
:102DE000D8A3D8331367070CD8B3F8331367070C8D
:102DF000F8B3F8331377F703F8B3238C07003245A1
:102E000058312384E7025821A384E702383123850F
:102E1000E7023821A385E70218312386E70218214B
:102E2000A386E702983F1367170098BFB82F7D8BE2
:102E3000B8AFB82F13670702B8AFB82F13670701F1
:102E4000B8AFB82F1377B70FB8AFB82F1367170005
:102E5000B8AF13070060FAAFF8231377170FF8A382
:102E6000F8231367A700F8A337470240832707809A
:102E700093E747002320F78041016FD0AFB1EFD235
:102E80002FAF7523378702401C2F93E707021CAF33
:102E9000238C018805472384E18A03A7418A23AA5A
:102EA000E18A1147238DE18AEFF0FFEE6FD08FAEFC
:102EB000EFD20FACAD2B3747024083270780ED9B45
:102EC0002320F7800547A388E18A03A7418A23AA24
:102ED000E18A6FD02FACEFD2AFA9B7870240054788
:102EE0002382E7028A3315472382E70242054181A4
:102EF0009A33937645008DCE9376050289C6EFF01E
:102F00001FF86FD02FA9420741831DE337070080C8
:102F100013070710D8D3A38D018A238D018A238834
:102F2000018AA38C018A238C018A2389018AD1BF5B
:102F3000EFF01FF8F9B7EFD2AFA3B7860240C02277
:102F40001374F40F93770404B5CB93070004DCA249
:102F50001386C1891C42984363560704D8321377FD
:102F6000870755EFCC479841635E07029843617528
:102F70007D150607058398C39843698F98C39843C6
:102F8000370501C07D151367073098C39843698FD3
:102F900098C3FA26884311074207498F98C39E2594
:102FA0000CC2DEA69387818A982309CB2380070071
:102FB000378702401C2F93F7F70D1CAF93778400DF
:102FC00099CB03A7018A1C43860785831CC3B78757
:102FD00002402147D8A39377040199C7EFF0BFEFD0
:102FE000B78702404147D8A39377240099CB03A722
:102FF000018A1C43860785831CC3B78702400947A3
:10300000D8A3058809CC83C7818A91C79387818912
:103010009823050798A3B78702400547D8A36FD028
:103020006F97EFD2EF942A84EFF0BFCD13054006DF
:10303000152A2285EFF07FD8B73700209387079DA8
:1030400023A0F18A374700201307071A37350020DD
:10305000B73500201304059998C723A00700DCC7E3
:1030600011469385059E13050599EFF07FCE23A6A3
:10307000818A37070020B7E700E023A2E7106FD06E
:103080006F91EFD2EF8E39719307005F3ECA9307BD
:10309000405B3ECC8567938747263ECE930720034F
:1030A0003ED0930730103ED2B727554289073ED411
:1030B000B73700009387A7A13ED6B73700009387A4
:1030C000E79E3ED8B73700009387679B3EDAB75735
:1030D0003412938787672A8948082EC632C4B6847B
:1030E00002DC3EDEEF00D0052A8419E92246B24513
:1030F000A6864A85EF00007A2A842685EFF07FF2C3
:10310000228521616FD00F8983A7018137177A004B
:1031100013070720B3D7E70293F7F70F238FF18A3E
:103120001307803EB387E702239EF18A8280B7F7B8
:1031300000E0D8438146799BD8C303C7E18B3306AF
:10314000A70290CBD4CB98431367070198C3984349
:103150001367170298C3D843058B75DF9843799B93
:1031600098C38280B7F700E0D8438146799BD8C3E3
:1031700003D7C18B3306A70290CBD4CB98431367F8
:10318000070198C398431367170298C3D843058B68
:1031900075DF9843799B98C38280EFC27FFD011150
:1031A0002A84854537050200EFF00FDF854511457C
:1031B000EFF0AFDC91477C82371501408D473EC46C
:1031C0004C00E147130505803EC6EFF06F9F22C813
:1031D00037440040B70708000C08130504403ECCF4
:1031E00002CA231E0100EFF0AFE885451305044035
:1031F000EFF00FF105616FC0FFF9EFC2DFF5B744E3
:103200000040AE893289014493840440634524011F
:103210004A856FC09FF7930500042685EFF00FF4F1
:103220007DD9B38789008385070026850504C205FB
:10323000C181EFF0AFF1D9BF1387C1811C43B786BD
:1032400000209386869C3E95636BD500B7060120CF
:103250009386068063E5A60008C33E858280FD57FD
:10326000EDBFEFC2FFF083A7418A41113EC6EF00D8
:10327000B05B1189630005149387818D9843B24632
:10328000998E378700200327479005836376D70000
:10329000324798C3EF30A05CEF30100883A7818ECF
:1032A00091C7EF30E05D19E123A4018E9384418D35
:1032B0009840B247998F1307703E6376F700EF107E
:1032C000B03FB2479CC09387018C9843B246998E19
:1032D0000567130777386376D700324798C3EF0046
:1032E000907BB78700209387878CD84711CF1387AF
:1032F000018D1043B246918E1306703E6376D60060
:10330000B246DC4314C38297B784002083A70487A6
:10331000A9CB1387C18C1C43B2461306A00F9D8E08
:10332000B787002083A70794ED83B387C70263E9BB
:10333000F600B2471CC3938704879C4B91C38297C6
:103340009387818C9843B246998E3D671307F7A502
:103350006379D70032479384048798C3DC4891C3CC
:10336000829732459384418C7D2C9C4032471D8F3F
:10337000BD679387F7A563F5E700952CB2479CC01E
:1033800003C7518EBE841377F70F0DC703C7518E45
:103390001377070C1DE3B787002083A7879499C391
:1033A0000545829703A7418A23A0E18E9307000475
:1033B000A382F18E41016FC0FFDD03C7518E1377E9
:1033C000070415CB83A6018E03A7418A1389018EBA
:1033D000158F93064006E3FFE6FCB787002083A71E
:1033E000879499C30145829783A7418A2320F900D6
:1033F000930700F875BF03C7518E62076187E35BCF
:1034000007FA83A6018E03A7418A158F930640060B
:10341000E3F2E6FAA382018E71BFEFC27FD5378552
:10342000002013058595EF10004A6FC0BFD6EFC28C
:103430003FD4B78700209387878ED85737840020E2
:1034400088D313674700D8D711899307C4929C4F3C
:103450001304C49201CD99C3014582975C4C99C372
:10346000014582970545AD226FC0DFD299C305455E
:1034700082975C4CF5DB05458297FDB783A7C18A2F
:10348000232005009DCB944363DB0600D447904284
:10349000634506029C4363D4070023A6D18A83A711
:1034A000C18A91650146FD153548B70800809443EF
:1034B00063D7060019C223A6F18A0145828094438E
:1034C0001393060163420304944393F606108DCED2
:1034D000944393F606208DCA9443C182ED8EF11673
:1034E00014C16371D802944393F6060281EA19C2AB
:1034F00023A6F18A9C475CC105458280944393F6DC
:103500001608F5D62320050023A017010546DC4741
:1035100079BF03A7C18AB706008014C3584723A602
:10352000E18A8280EFC2DFC483C7518E93F7F70F21
:1035300081E78547A382F18E03A7418A9387C18DD6
:1035400009CB98C3B787002083A7C79482976FC021
:103550007FC40547FDB7B7F7FF1F03D56770137525
:10356000050F8280EFC2DFC0B787002083A7C79412
:103570000149B9C783A4018AA1C49C4003A984005E
:103580001384C18D63DC0702EFF0FFFC1440814718
:103590001306000813083006A16813030003630430
:1035A000C5006312650203A7418A158F6364E800B2
:1035B00063FBF8009C40860785839CC023200400A1
:1035C0004A856FC03FBD9840E35A07FE8507C1BFDB
:1035D00003A7418AB78700209387478688A3239152
:1035E00007002392070098C7A38007008280EFC2DC
:1035F0003FB8B7840020138484955C4041116C006F
:10360000138584953EC623220400EF00D069B2479B
:103610006C00138584955CC05C443EC6EF00B068C6
:1036200041016FC03FB7B787002093874786982333
:1036300019E388C7828098479306703E3307E540B8
:1036400063F3E602EFC2DFB2BA2388C7914663F79D
:10365000E6000145EFF0DFF76FC0DFB30507BAA35F
:10366000EFF0FFF8D5BF8280EFC29FB02A840145FA
:10367000EFF01FF6B78700209387478611C80547EC
:1036800098B3B7870020094723AAE7906FC09FB07F
:10369000A3800700E5BF8280EFC21FAB5C42032A14
:1036A00085000329C5000049AA8488239C33B28978
:1036B000A2075D8DEF1060309355650093F5C5034B
:1036C000B305B0404E85EF20406549E5DC44984C99
:1036D00003DB8900998F63F867014E85EF20C06A8C
:1036E00005456FC0FFA94A9A4E890356A900B30A3F
:1036F0008A40832B490063F4CA045686DE852285FE
:10370000EF60705B8357A9009844330444413E94B2
:103710002286B3855B013A85EF60F0592A9403292C
:103720000900E31409FC4E85EF2000669C4C80C81C
:10373000DA979CCC9C4093E747009CC055B7228504
:10374000DE85EF6050578357A9003E94E39957FDFB
:103750008044F1B7014571B771CAEFC2FF9E832B58
:10376000C5001C4D035B8600BA8AB387FB40368ACE
:1037700032892A8463F767013285EF20E0606FC0E9
:103780003FA01C450449B289BE9B03D6A900338CD7
:103790009B4083AC49006377CC066286E68526852C
:1037A000EF60705183D7A9001844B3847441BE946C
:1037B0002686B3858C013A85EF60F04FAA9483A9E1
:1037C0000900E39409FC4A85EF20005C0328840388
:1037D0006305080483451A0083470A001448A205BC
:1037E000DD8D83472A005A875686C207CD8F8345D1
:1037F0003A002285E205DD8D02981C44232C04004A
:103800001CC8B5BF2685E685EF60F04A83D7A900BE
:10381000BE94E39687FB04445DB7184C1C4004C873
:103820005A9793E7470018CC1CC091BF828019C9F2
:103830003305A040BD679387C77B1375F50F3E9591
:103840000821828001458280EFC29F929307C003C6
:10385000B387F502377400201307C47E2A89AE842B
:103860001306C00381451304C47EBA973E85EFC09A
:103870003F93630709001306C003CA85EF60B04396
:103880009305C003B385B402A2959C459CC9DCC9CD
:103890006FC05F90EFC23F8C2A8A378500204111AC
:1038A000AE89B284814561461305058736C6EFC0EF
:1038B0003F8FB246378400201309848EB68519469F
:1038C0001305C900EF60303F1146D2851305848E81
:1038D000EF60703E1146CE8513054900EF60B03DA4
:1038E0001304848EA1E0B7070001FD171CC48144B6
:1038F00083C7418E63CFF402EF10E00385475CD0AD
:103900001567B78700209387C78D130707E298C311
:103910001167130787A9D8C3254798C701454101F7
:103920006FC0BF861146A68513058400EF60B038CE
:103930007DBF93F5F40F0145EFF01FF185044DBFF6
:103940001855B7573412938787676310F712EFC281
:103950009F801C512A8425456381071037890020E8
:103960001306400481451305898EEFC07F83B78419
:1039700000201306C00281451385C492EFC05F8208
:103980001306C002A2851385C492EF60D0329389DA
:10399000C49203A749014A869387C49225EBBD666A
:1039A00003D7C6799386C679AE222E97CE22F62209
:1039B0002E9736979316270163D3060AD8CBD84B98
:1039C0009356E700FD8A89EAB746F8FFFD16758F22
:1039D000B7060500558FD8CBD84B93563701FD8AD3
:1039E00089EAB746F8FFFD16758FB7065000558F68
:1039F000D8CBD84B9316670063CA0600B70600FE03
:103A0000FD16758FB7060014558FD8CBD84B93563B
:103A1000B70189E6B7060040558FD8CBD85311E7D8
:103A2000373700001307C747D8D3D44B014513D706
:103A3000E6007D8B2382D18E9307868E98CF13D795
:103A400036017D8B130620033307C702D8CF1397A7
:103A50006600635407000947B8C36FC00FF3F976D7
:103A6000FD16758F8966558F91BF1305F00F828003
:103A700003C6418EB77700209386C77E01479387A0
:103A8000C77E6317E60081476313F7020145828012
:103A900003A807036317A80009C50545EDD998A138
:103AA000828005071377F70F9387C703D9BFD05AD2
:103AB0006319A60019C50545F9D993E707F89CA134
:103AC0008280850793F7F70F9386C60375BFEFC211
:103AD0008FE8377900202300050003C7418E41118C
:103AE0009307C97E81441309C97E631797001305A4
:103AF000000241016FC06FE99387C70383A647FEA9
:103B000063810618850493F4F40FC5B7B7870020C6
:103B100083A7878E6C003EC6EF20605A114693053E
:103B2000C4026800EF6030196C004E85EF20005B26
:103B30001306C0033386C402B73500009385856938
:103B40004E854A96EF20605B9547378500206C00D4
:103B5000232834031CD013058595EF00D014A685C7
:103B60002285EFF07FCE014569B709476390E70AE8
:103B7000EF50404CAA8963030512930AC402114610
:103B8000D6856800EF603013324A370500F0EF0049
:103B9000F065337AAA00370500E0EF003065630076
:103BA000AA04B7850020938585956800EF10202C26
:103BB0001DE5B787002083A7878E12346C004E85E1
:103BC0003EC6EF5000251DE1D68511466800EF6026
:103BD000900E52306C004E85EF50803D39A012346B
:103BE0009385C1844E85EF50C02201C5EFF03FC4DC
:103BF00009B71306C0033386C402B73500009385A6
:103C000085754E854A96EF5080423DBF0D4713059E
:103C10001002E390E7EEEF20506C5C4412346C002D
:103C20005EB9B787002083A7878EAA893EC6EF209A
:103C3000E0552A8A11C54E85EF20302E52857DB77A
:103C40009305C003B385B4024E85CA95EF20A074D6
:103C5000B73500004E8593856569EF200074954760
:103C6000A685228523283403232A34031CD0EFF0B1
:103C7000BFBD378500206C0013058595EF00B002AD
:103C8000DDB504A1DC4DC4C12E84E39007EE0345ED
:103C90008402EF20E046AA89E31A05E6454591BD76
:103CA000EFC20FCD4EB52A84EF20A05F09CD834728
:103CB0006402228593E727002303F402EF40B00655
:103CC00005456FC02FCDB787002083A7C793A18379
:103CD000858BFDD783476402858BFDD38947A3037A
:103CE000F402054723A4E18EE1BFEFC2CFC6144220
:103CF0006944CDCE23200600328A1306C003330662
:103D0000C502B77400201387C47EAA89AE87938446
:103D1000C47E3297032B8700504703298701404B0D
:103D2000329B63F326013689B30A8B4063F32A0979
:103D300081CB3E855686A285EF60E077B3075501BB
:103D40001307C0033387E9024A943304644126977A
:103D5000832A870091C72286D6853E85EF60A075AD
:103D600056949307C003B387F90223202A01A6972C
:103D7000984FC0CB3309274123AC270163180900B2
:103D80009847D8CB98CB98436D9B98C39307C003B3
:103D9000B389F9028D470144CE94D84C6318F700DB
:103DA00063160900CE248858EFF09FEF22856FC07C
:103DB000CFBD91C74A86A2853E85EF60C06F4A9409
:103DC000E3912AFB9307C003B387F902A6978047C4
:103DD00049BFB77700209387C77E81C91307C00307
:103DE0003307E5023E97584B98C11307C0033305CC
:103DF000E502AA97884F8280EFC28FB40042232049
:103E0000060055C8AA876945D9C91305C003B387F9
:103E1000A702377500201305C57E378A002081442C
:103E2000AA9703AB070393078A8EBC43130A8A8EB3
:103E3000898B99E39304700C9307005C63F487000B
:103E40001304005C931D0401BA8C368CB289AE8BCE
:103E500093DD0D01130D800C0146EE850145EF1039
:103E600090772A8939C948412286DE85232E0A02A5
:103E7000EF606064E6866286CA855A85EF506010FE
:103E8000AA8A4A85EF1050708327CA0399CB85040C
:103E9000C204C180EFF06FD8E390A4FD4D456FC020
:103EA000EFAD63D60A005685EFF07F98CDBF23A013
:103EB00089000145EDB76945DDB74545CDB7EFC28E
:103EC0002FABA147AA840021638AF50263ECB700F7
:103ED00085476381F502894713642400638EF500EA
:103EE0006FC04FABC147638EF500930700041364A6
:103EF0000404EDB71364140080C0DDB713648400BC
:103F0000E5BF48591364040165D9EF201001EDB7EE
:103F1000EFC20FA641119305F1002A89A307010002
:103F2000EFF01FB515C5808793178401E18763D42F
:103F300007021374F4071307C0033304E402B777CE
:103F400000209387C77E3E94232A04022320040284
:103F500041016FC02FA483C7418EE37BF4FE13079A
:103F6000C0033307E402B77700201385C77E93842C
:103F7000C77E3A95544D0D47E39CE6FC8327090123
:103F80000547DD1793F7F70F636DF700C145EFF0B5
:103F90001FF39307C0033304F4022694232804027A
:103FA00075B71C2193E707041CC1E5B737770020DC
:103FB00083C6418E1307C77E8147638FF6001307C0
:103FC000C703032647FC11CEB78700209387878E4F
:103FD000D85713670701D8D7B787002003C5479183
:103FE0008280850793F7F70FC9BFEFC26F98EFF094
:103FF000FFFBB787002023AA07906FC0AF9983C744
:10400000418E6371F5029307C0033305F502B7775C
:1040100000209387C77EAA9798431375F70F118BDB
:1040200098C3828001458280B787002003C58790AE
:104030008280B787002003A5079435810589828097
:10404000B78700209387878E05474111C8CB94DB43
:10405000D0DB8CDFD8D741018280B78700200547AD
:1040600023A2E7928280EFC2AF90B787002003A619
:10407000879383A60182131786016187630B05145A
:1040800083C7C18E61488948338807033698032364
:10409000C800631013150343150083480500032867
:1040A000080022033363130183482500C20833E369
:1040B000680083483500E208B3E86800639B081194
:1040C000E207E1873E856FC0EF8CB3885702B69850
:1040D00003AEC8006319060763170E06139887011D
:1040E00013588841850793F7F70FE3E0C7FE63177E
:1040F000060193F81500FD57E38608FC8989FD57F2
:10410000F1F19377F80F636BC8009377F30F636750
:10411000C300FD57E378C7FA9377F70F61473387FA
:10412000E702BA9623A6060001CD10311821220617
:10413000598E38214207598E38316207518F98C203
:10414000238806000DA863147E040DC9834E150054
:10415000034E0500A20EB3EECE01034E2500420E23
:10416000B36EDE01034E3500620E336EDE0183AEA8
:1041700008006315DE012386F18E99B783C8080114
:10418000E3E2E8F7139787016187468FA1BFE31B3E
:104190008EF415C5834E1500034E0500A20EB3EE36
:1041A000CE01034E2500420EB36EDE01034E3500F4
:1041B000620E336EDE0183AE0800E30EDEFB83C8C1
:1041C0000801E3E1F8F31393870113538341C68F8A
:1041D00011BF3A883A83814F014F8147E1428543BD
:1041E000094421B7EFB23FF798319C21368A220764
:1041F0005D8FBC215441C2075D8FBC31E207D98F6E
:10420000639BF60089E6D9573E856FB01FF80545D8
:10421000EFF08FC5CDBFE5DB2E842A89AA852285E4
:10422000B289EF00D04465F11C300420370500F05E
:10423000A207C58F2420C204C58F2430E204DD8C80
:10424000EF00C07AE98C370500E0EF00207AE38CBC
:10425000A4FAD2852285EFF01FE1AA87E34605FA8A
:10426000E147B307F50203A501823E9589475CC586
:10427000232A2501938759001307950094237D175E
:1042800014B39386F7FF6396F9002308050081476E
:10429000A5BFB687E5B7B787002003A5879303A816
:1042A00001820147E14809430546130EF00E63639E
:1042B000A7008280B3061703C2969C2ACC468507C6
:1042C00093F7F70F9CAA63986500636AFE000507E1
:1042D0001377F70FE9BFE39CC5FEE37AF6FE23A64A
:1042E0000600F5B721CDEFB2BFE8C4412A84DC3423
:1042F000C824A2075D8DEF00606BA167938707104C
:10430000938524016304F5009385E400D835DC250A
:1043100022075D8FFC25C2075D8FFC35E207D98F30
:104320005840B98F1844F98F81EB81461386640099
:10433000B1052285EFF01FEB6FB0DFE582806303EC
:104340000516EFB25FE13A26930790024111B28958
:104350002E8AAA8463E8E7004E85EF10F02241011F
:104360006FB0BFE2032946008347D9000345C90067
:1043700013042901A2075D8D152DA16793870710EE
:104380006304F5001304E900834A14001C2005456A
:10439000A20AB3EAFA00192DE390AAFC834A54005A
:1043A0005C2013054060A20AB3EAFA000125E395F8
:1043B000AAFA834A34003C200565A20A1305058049
:1043C000B3EAFA00E523E399AAF8930AE400114658
:1043D000D6856800EF60200ED44013068400ADC27D
:1043E000183C1C2C22075D8F3C2CC2075D8F3C3C87
:1043F000E207D98F6396F60485466C002685EFF0B8
:104400007FDE054B7C306820A2075D8D4523854704
:10441000630FF5028947E311F5F46C002685EF1070
:104420002033B787002003A70787E30707F29387A6
:104430000787DC47E38207F26C002685829729BF55
:1044400081466C002685EFF0FFD9014B65BFE3057F
:104450000BF00945A12B68A0218168B01146D685D3
:1044600013058401EF6020051146938544005685AD
:10447000EF606004350415099547FD5618207D1935
:104480007D1438B4A300E9003307FA001823FD17A0
:1044900018B0A303E900E393D7FE9C4CCE85268594
:1044A00082975DBD8280EFB21FCB2A89AE8901461B
:1044B0009305A0020D45EF1010127D544DC94041E7
:1044C000AA840545E52148A8218148B89306E90258
:1044D000930754001547938541841386C1837D5506
:1044E00003C80600FD17FD16A38B07013388E500FE
:1044F00003480800A38007033308E60003480800C8
:104500007D17A380070103C81600A3830701E319E1
:10451000A7FC1146930549001305C401EF50B0797B
:10452000CE85114613056402EF50F0780545BD298C
:1045300068A48569218168B413850980852908A844
:10454000218108B813054060952128A8218128B849
:1045500013856980A1298327890148A4218148B452
:10456000A6854A8582972A842685EF10F001228548
:104570006FB0BFC1EFB23FBE2E842A89AA852285C3
:10458000B289EF00D00E01C559556FB01FC01C3065
:104590000420370500F0A207C58F2420C204C58F70
:1045A0002430E204DD8C9921E98C370500E03D29B7
:1045B000E38CA4FC18301C2022075D8F3C20C2072E
:1045C0005D8F3C30E207D98FE1D385452285EFF03E
:1045D0009FA9E34C05FAE147B304F50203A7018262
:1045E000138A018285472697544799EA5CC7EFF002
:1045F000DFA6A2854A85EFF01FEBE38809F831A01A
:10460000E387F6FE7D55E38409FE83270A00094708
:10461000A697D447E39BE6F603A4490013879700C7
:104620001306E902930654008D070C237D17FD162F
:104630008CB20C227D16ECB2E319F7FE056513056A
:104640000580AD268327890148A4218148B4CE8501
:104650004A8582971DBFEFB21FB0AE8441112A89EF
:10466000B94526853284EF10406B631E0510CA855C
:104670002285EF00C07F631505101C3083490400BC
:10468000370500F0A207B3E7370183492400C209C8
:10469000B3E7F90083493400E209B3E9F900B92628
:1046A000B3F9A900370500E0912610201430382016
:1046B0003C30639CA90813958600518D4207598DA3
:1046C000E20785456C845D8D9305E0054C85392EA8
:1046D00041811375F507C88508301C2022055D8DC2
:1046E0003C20C207C98F283062055D8D01262181DB
:1046F000488608301C2022055D8D3C20C207C98FEA
:10470000283062055D8DDD24C8863400C0409547A1
:104710007D5613075400B385F6008C217D170CB32A
:10472000B305F90083C59502FD176CB3E395C7FE89
:104730000565130505809D2C8327890148A42181E7
:1047400048B4A6854A8582970DA8A206D18E420755
:10475000558FE207D98F03274900B98F03278900B6
:10476000F98F99C78327C900715581CB1304C900FC
:104770002686A2854A85EFF0FFDF41016FB0FFA0DA
:104780009386C18361B77955CDBFEFB27F9E444117
:104790002A842E89DC34C824A2075D8D012CA167F0
:1047A000938707106317F5009C388828A2075D8D52
:1047B000F52A9307058091CB85679387678063020D
:1047C000F5042285EF10405C15A8A2854A85EFF01C
:1047D0007FB1DC34C824A2075D8DC92AA167938705
:1047E0000710B9456313F500C945B305B0402285EC
:1047F000EF10A05279F5CA852285A92401456FB032
:104800007F992286930599024A85EFF05FB3FDB741
:10481000EFB21F96B7870020938787885CD19307F4
:104820005006A309F5029307E006230AF502B747ED
:104830000000938767655CC9B75700009387478777
:104840001CCDB785002099472A842304F502232E26
:10485000050019469385159813059502EF50B0454C
:104860009307C05D1EB8930730032309F402014586
:104870006FB05F92EFB2DF8FB1642E8493841435F2
:10488000EFF08FFA118915CDFD1485CCEFE09FCDA7
:104890002A897DD5AA87814401E8CA852685EFE06B
:1048A0007FC801456FB01F8F32244C403E85EF50CA
:1048B00090403A240040BA94C204B307E500C18096
:1048C000E1BF5155C5B7EFB21F89B787002083A755
:1048D0000795AA891385018F9384018F82978C4055
:1048E000A9C983C7518E1384018F93F7F70F81E70E
:1048F0008547A382F18EC2050D46C1810D45444016
:10490000EF10604D2A8915C52A8432244840A685B7
:10491000EF50703A3E240040BE9465F8EFE07FBF50
:1049200083A70901CE854A85829701C54A85EF1084
:10493000A0456FB09F85EFB2BF834111378400203F
:1049400002C202C402C6EF00D07813058495B78571
:10495000002019469385458F13059502EF50B03519
:10496000B787002003A7878E9387878E13058495CA
:104970003AC29847DC433AC43EC623A8019023A616
:104980000190EF10A03837480000B75700007400BE
:1049900030004C001308A87893870781014713055E
:1049A0008495EF10003141016FB0CFFE9317850061
:1049B00021815D8D4205418182809317850021818F
:1049C0005D8D4205418182801357850193178501D2
:1049D000D98FB706FF0013178500758FD98F4167F0
:1049E000130707F02181798D5D8D8280EFB24FF83A
:1049F000EFF09FFD6FB00FFAEFB28FF703A40191B4
:104A0000AA8401EC03A5C19011C5EF10803019C133
:104A100003A4C19022856FB0EFF72285EF10602FBD
:104A200005C198309C2022075D8FBC20C2075D8F96
:104A3000BC30E207D98F5840B98F1844F98FF9DBA1
:104A40000040C1B7EFB24FF04041AA84AE891C309C
:104A50000820A2075D8DEFF05FF6318142054181AC
:104A600091476306F5002685EF10003231A41C3013
:104A70000820A2075D8DEFF05FF419813C30137AB6
:104A8000C5032820A2075D8DEFF03FF3BE242A89DD
:104A9000E3EB47FD9E24E3E8A7FCD2852285EF40A7
:104AA000102371F1CA852685EF10E046370500F026
:104AB000EFF0DFF3370500E0EFF05FF34E89054BD1
:104AC000930B04014A85EF10C02411E563130B1208
:104AD000032909000DA293074900EDDB8326490055
:104AE000F5D618381C2822075D8F3C28C2075D8F39
:104AF0003C38E207D98F6382F604CA855E85852E2D
:104B00000DED1C38834A0401370500F0A207B3E716
:104B10005701834A2401C20AB3E7FA00834A3401E9
:104B2000E20AB3EAFA00EFF07FECB3FAAA00370525
:104B300000E0EFF0BFEBE39BAAF858345C242207B7
:104B40005D8F7C24C2075D8F7C34E207D98FB9C3A7
:104B5000CE851305C400212EE31705F05C34034A0B
:104B6000C400370500F0A207B3E74701034AE40099
:104B7000420AB367FA00034AF400620A336AFA0091
:104B8000EFF0DFE6337AAA00370500E0EFF01FE62A
:104B9000E30BAAECE30909EC03497400682022093D
:104BA0003369A90011657D15EFF05FE03375A90049
:104BB00011C52685ED26AA8461C14041CE85268592
:104BC000EF10604955E91C340824A2075D8DEFF011
:104BD000DFDE1375F50F99476303F50AC5476309CF
:104BE000F50885476312F50ACE852685EF40204EED
:104BF00061A003A901916314390103290900014B44
:104C0000E31209EC1C340824A2075D8DEFF0FFDAF3
:104C10001375F50FC547631EF500B3074401A823BC
:104C2000BC33A2075D8DEFF05FD993074004630D9D
:104C3000F502854A1C340824A2075D8DEFF0FFD7EA
:104C40001375F50FC5476319F508229A83473A0093
:104C500003452A00A2075D8DEFF03FD69307C0768B
:104C6000631CF5064E893DB7E39809F2814AD9B72E
:104C7000CE852685EF30707601456FB06FD0CE853A
:104C80002685EF20D012CDBFCE8513050401C522A5
:104C9000E31B05DC1C3803490401370500F0A207BB
:104CA000B3E72701034924014209B367F900034927
:104CB000340162093369F900EFF05FD33379A90059
:104CC000370500E0EFF09FD2E30FA9D8C0C08945B7
:104CD0002685EF40C06441BBE3910AE669B3EFB2B9
:104CE000AFC6AA894289630F0612AE8AD1453A8AB5
:104CF000B284B68B3E8BEF104002795763110512D8
:104D000003A44900A20B1C340824A2075D8DEFF018
:104D1000DFCA1375F50F33657501EFF03FC91357FF
:104D2000850018B408A4EFF05FC9218142054181D4
:104D300022053365650142054181EFF03FC7983098
:104D40009C2008A422075D8FBC20218108B4C207E3
:104D50005D8FBC30116513050550E207D98F13D75D
:104D600087001CA818B813D70701E1833CB838A8FE
:104D70003365AA00EFF09FC308A0218108B003D5D6
:104D80008900138A818FEFF07FC228A0218128B08B
:104D900003550A0023030400A3030400EFF01FC11E
:104DA00083570A0048A02181850748B02310FA00E4
:104DB00063810A0203C71A0083C70A0022075D8FB6
:104DC00083C72A00C2075D8F83C73A00E207D98FE5
:104DD00099E713074900814719C38327490013D76F
:104DE00087005CA458B413D70701E18378A47CB48E
:104DF00023050400A3050400D1452285EF40206D62
:104E000028A4218128B48357090385C303D78900C7
:104E100063FDE7002686CA854E8585232A873A8565
:104E20006FB00FB64441C104F9BF832749012686FC
:104E3000CE854A858297DDB7EFB28FB301112A8400
:104E400032852ECE36CC3ACA3EC832C6EFF0DFBA33
:104E500009CDC2475247E2463246F2452A882285AA
:104E6000EFF0FFE705616FB0EFB27155E5BF1831A4
:104E70001C2122075D8F3C21C2075D8F3C31E20778
:104E8000D98F9386F7FF75576366D70203C725034B
:104E90000145098B0DC3D841630FF70094453D8F41
:104EA000758F11EB13C5F6FFE98F3385A7401335D6
:104EB0001500828005458280EFB20FA903A4C18F3F
:104EC000C544014B1389C18F19E06FB06FABFD145E
:104ED00093F4F40FFDD87C3C032C040091C7FD171C
:104EE0007CBC228B6284CDB783294400814A03A510
:104EF00049005C315821A207D98F85EF18311C2158
:104F0000514622075D8F3C2193058400C2075D8FC7
:104F10003C31E207D98F5CC0EF50E05985454E85A2
:104F2000EF4020414E85EF108004AA8A4E85EF00A5
:104F3000B0658329440063960902032709001C40D9
:104F4000631CE4042320F900A2851545EF00B04658
:104F50001387A18F1E235A84B38A57412310570108
:104F600049B703A749004E851C33034A0700A2072F
:104F7000B3E74701034A2700420AB367FA00034A2E
:104F80003700620A336AFA00EF00707EAA9A4E85F3
:104F9000EF00905FD28945B72320FB0075B7EFB2D1
:104FA000AF9A44412A899C308820A2075D8DEFF09A
:104FB000DFA019811375C503D1476312F526FC30B4
:104FC000E820A2075D8DEFF05F9FBC302A8BA82000
:104FD000A2075D8DEFF07F9E9C30AA8C8820A207EF
:104FE0005D8DEFF09F9D2A8C4A85EF005078B78742
:104FF000002083A7C79303D7A18F2A8D8D832A977B
:10500000FD8B9389A18F63ECE72003A4C18F814AB4
:10501000138AC18F1DE81545EF00F0372A8463001D
:1050200005207146814513054400EFB06F978D4709
:105030007CBC83270A0023208A001CC05146A68519
:1050400013058400EF50204795ACD834DC242207A8
:105050005D8FFC24C2075D8FFC34E207D98F58486E
:105060006316F70298389C2822075D8FBC28C20778
:105070005D8FBC38E207D98F184C6319F700DC301C
:10508000D4205A24A207D58F6306F720A28A0040B5
:1050900051B7CC4203C8550003C34500220833680A
:1050A0006800637C060D93D5860094A38CB393D5DA
:1050B0000601E182ACA3B4B3630E072A74336C23F8
:1050C000A206CD8E6364D6146362A8149356890039
:1050D0002300270114B3935609011359890134A3FE
:1050E000A3012701782C014B058B630F0718638DF3
:1050F000081858404443D830D4202207558F6315F0
:10510000071894339823A206D98EB8234207D98E64
:10511000B8336207558F61E75E2C03C9040051461E
:10512000D1075EAC9C30930584002685A207B3E7C7
:10513000270103C924004209B367F90003C93400F9
:1051400062093369F900EF5000374A2CEFF01F86EF
:10515000A8A02181A8B023830400A3830400238591
:105160000400A3850400D1452685EF404036A8A45D
:105170002181A8B4032B4400D5A063090609F431AA
:1051800003C36500A206B3E666006361D60801CBDF
:10519000742378332207558F6303E80081489831E0
:1051A00094212207558FB421C206558FB431E206EF
:1051B000D98E2E8765AA935689002300270114B340
:1051C000935609011359890134A3A30127017423BC
:1051D00078332207558FE307E6F0814821B754431F
:1051E000EC23F833DC32D0222207A2074D8FD18F77
:1051F000631AF7029C329822A207D98FB82242077D
:10520000D98FB83262075D8FB68731B74A85EF0014
:10521000105683D709003385A7402390A9004A85FB
:10522000EF009036014B8DA0B1554A85832449008B
:10523000EF00B02ECA855A85EF0030559C3003C967
:105240000400A207B3E7270103C924004209B3679A
:10525000F90003C9340062093369F900E31609FC57
:1052600003270A001C406314E4022320FA00A285ED
:105270001545EF0050145A85EF00704F83D7090091
:105280003385A7402390A9005A856FA07FEF23A004
:10529000FA00F1BFFC30E820896BA2075D8DEFF0CA
:1052A000CFF1FD1B337575014205418101E96A2487
:1052B000EFF0AFF033757501E31205D883D709001D
:1052C0003E9D2390A901FC30E820A2075D8DEFF000
:1052D000CFEE9317250163C2070213153B017C2C07
:1052E0004D810E05135C6C006695137CCC0393E72F
:1052F0001700330585417CAC4AAC83244900BC309F
:10530000A820A2075D8DEFF04FEB9C302A8B882000
:10531000A2075D8DEFF06FEAFC30AA8BE820A207B0
:1053200093DB6B005D8DEFF04FE94E054D81131659
:1053300035003305CB0013FBCB038327490033052E
:10534000654142051357860041815440D8B3135735
:105350008500F8B323800700A3800700238107009E
:10536000A3810700D0A3E8A385480147E39306D2B1
:10537000E31307E423222401B5B3EFA27FDC032C5F
:105380004500011132CA03477C00AA8D03456C0019
:10539000220783DB0503598DAE8CEFF00FE289669F
:1053A000B377D500138ACBFEA146334ADA0283D401
:1053B0008D0009677D173EC63379E500B1144209B7
:1053C000C20413590901C1800144514D3ACC420A2B
:1053D000135A0A0193163A0093970601C1833EC8F7
:1053E0009387DBFE3ECE89E4014505616FA01FD99E
:1053F000E247A68A337BF900B24733EB6701F247F5
:1054000063C6F400C24A8967336BFB000146D1458D
:105410000945EF00501CAA8939C948415146E28527
:10542000EF50600903A64D0083AB49006A9623A2A2
:10543000CD0003D6AD00B306A6412395DD00568D01
:1054400063090D0403D4AD0063738D006A844204C4
:10545000418001E483AD0D00E5B7814509460D4566
:10546000EF007017AA8511E54E85EF00F0117D550C
:10547000ADBF03A64D0002A522A550C14E85EF0089
:10548000D030B3068D40139D0601135D0D01E3136B
:105490000DFC5A85EFF08FD12383AB002181A383CC
:1054A000AB0013854A0142054181EFF02FD02381E3
:1054B000AB002181A381AB00D14523850B00A385DF
:1054C0000B005E85EF40A00003A74C0152462385E8
:1054D000AB002181A385AB00CE8566850297B3849E
:1054E000544152994E85C2044209EF00F009C1802F
:1054F00013590901228DC5BD3C296385B7002CA92C
:10550000A309050082805E2D184DB306F70023889D
:10551000B60E938627008507C207C18356ADBA979A
:105520002388C70E82805A2D1C4D9306170056AD56
:10553000BA972388B70E82805E2D184D13D6850149
:10554000B306F7002388C60E93861700C206C182F1
:10555000BA9613D605012388C60E93862700C20685
:10556000C182BA9613D685002388C60E938647005B
:105570008D07C207C18356ADBA972388B70E8280C4
:1055800015C15E2D184D130630049386170056ADD5
:10559000BA97FD562388D70E5E2D6376F60093F6F4
:1055A000370091E282809386170056ADBA97238820
:1055B000070EDDB7630C0516EFA29FBB032905029A
:1055C000DD5763020916AA8401469305401301457D
:1055D000EF007000232AA9002A87FD5763050514F0
:1055E000834639019387418281E69443850694C3BB
:1055F000404388438547232C89002320A9001CA011
:105600001CB099473CA0A3010400EFF0EFBB9357F7
:10561000850048A05CB09357050161817CA068B00B
:1056200003248901294723040400A304040023055B
:105630000400A305040023060400A30604002307B6
:105640000400A3070400834729016388E700F117DA
:1056500093F7F70F0547636AF700DC205CA4DC30A2
:105660005CB4FC207CA4FC307CB423080400A308B8
:10567000040023090400A3090400230A0400A30A68
:105680000400230B0400A30B0400230C0400A30C50
:105690000400230D0400A30D040083C58402814788
:1056A000414613970701418381466376B7003387EC
:1056B000F400834697023307F40054AF8507E39262
:1056C000C7FE1307C4029307C4062300070005079B
:1056D000E39DE7FE1307C40E238007008507E39DC3
:1056E000E7FE3755826313053536EFF0EFAD93577C
:1056F00085002306A40EA306F40E03268901935702
:10570000050161812307F40EA307A40E231E0900DF
:10571000814713074004B306F6002388F60E850779
:10572000E39BE7FE81473E856FA0DFA6D9573E8504
:10573000828011CDEFA2DFA3005101C8484811C1FA
:10574000A125232A0400232C04006FA0BFA482807B
:1057500063000518EFA2DFA1005163090416382881
:10576000A1476315F71698319C2122075D8FBC2154
:10577000C2075D8FBC31E207D98F18546398E714D4
:10578000AA84B1452285EFF03FD72685EFF09FE24E
:10579000631905120546930550032285EFF0BFD625
:1057A00091452285EFF03FD81146930520032285CD
:1057B000EFF07FD50854EFF06FA3AA852285EFF0B4
:1057C000BFD71146930560032285EFF0DFD3485021
:1057D000EFF0CFA1AA852285EFF01FD61D469305D5
:1057E000D0032285EFF03FD25E2C184C054622856F
:1057F000B306F7002388C60E1386270042064182AF
:1058000052AC9386170083C59402C206C182BA9631
:105810002388B60E93863700C206C18256AC83C574
:10582000A4023A96BA962308B60E1386470042069B
:10583000418252AC83C5B4023A962388B60E938651
:105840005700C206C18256AC83C5C402BA9623086B
:10585000B60E138667004206418252AC83C5D4025D
:105860009D0732972388B60E5EAC83C7E4022308F7
:10587000F70EEFF0FFD04E2C48489385050FC20578
:10588000C181512D034784021C4C4C484840D8A785
:105890000347940203A94400D8B70347A402930620
:1058A000300413860185F8A70347B402F8B723A292
:1058B00004002687EF30805F268523A22401EFF0C5
:1058C0005FE73C3885073CB885477EAC6FA09F8C6E
:1058D0008280EFA2FF891128BD24B787002083A70B
:1058E000078D91C382976FA0FF8A37570020130757
:1058F00037C4719B23A2E190B787002083A7479309
:10590000231107008D07F19B93960701C182BA9777
:1059100016A32302070023A4F1900546D0A396A363
:10592000B6A323A0E190828049C183A74190636E12
:10593000F50683A58190637AB50683A601901306C8
:1059400085FF230E05FE138701906373D60010C3F5
:10595000835685FFBE966304D60203C846006310D3
:105960000802638ED5000C436393B60010C38E22E9
:10597000231CB5FE9622B305F640BE96AEA2835513
:10598000A5FFB386B7006302D60203C84600631EB4
:105990000800032807006313060114C3035785FF9B
:1059A0009AA2035785FFBA97AEA382808D05C205E0
:1059B000C181F199C205C1813147AE8763F3E5002A
:1059C000B1473787002003264793C207C1830D06DE
:1059D000719A6360F60A03A74190636DE50883A698
:1059E00081906379D508930685FF835885FF998E4A
:1059F000C206C182938588FF958DC205C18163EA85
:105A0000F5066389F5063303170103484300631461
:105A100008029385860013880190AE97032E080034
:105A2000C207C18383580300B305F70063166E02F3
:105A30002320B80015A01388470163ED0503938563
:105A40008600AE9713880190C20703230800C18324
:105A5000B305F700E3EE65FC23901501B6A12382A0
:105A60000500231CF5FE96216306D60036973EA35B
:105A700082800145828039C5130735004207418382
:105A8000719B42074183B146BA876373D700B14720
:105A90003787002003264793C207C1830D06719AFA
:105AA00001456362F60203A7019083AE419093859E
:105AB00001903303F640B306D741C206C182615E4E
:105AC00063E46600014582803385DE0003484500BB
:105AD00083580500631708063308DE404698636262
